{
  "contractName": "MyContractBlockchain",
  "abi": [
    {
      "inputs": [],
      "stateMutability": "nonpayable",
      "type": "constructor"
    },
    {
      "inputs": [],
      "name": "admin",
      "outputs": [
        {
          "internalType": "address",
          "name": "",
          "type": "address"
        }
      ],
      "stateMutability": "view",
      "type": "function",
      "constant": true
    },
    {
      "inputs": [
        {
          "internalType": "uint256",
          "name": "",
          "type": "uint256"
        }
      ],
      "name": "userList",
      "outputs": [
        {
          "internalType": "string",
          "name": "username",
          "type": "string"
        },
        {
          "internalType": "string",
          "name": "password",
          "type": "string"
        },
        {
          "internalType": "string",
          "name": "role",
          "type": "string"
        }
      ],
      "stateMutability": "view",
      "type": "function",
      "constant": true
    },
    {
      "inputs": [
        {
          "internalType": "string",
          "name": "",
          "type": "string"
        }
      ],
      "name": "users",
      "outputs": [
        {
          "internalType": "string",
          "name": "username",
          "type": "string"
        },
        {
          "internalType": "string",
          "name": "password",
          "type": "string"
        },
        {
          "internalType": "string",
          "name": "role",
          "type": "string"
        }
      ],
      "stateMutability": "view",
      "type": "function",
      "constant": true
    },
    {
      "inputs": [
        {
          "internalType": "string",
          "name": "_username",
          "type": "string"
        },
        {
          "internalType": "string",
          "name": "_password",
          "type": "string"
        }
      ],
      "name": "authenticateAdmin",
      "outputs": [
        {
          "internalType": "bool",
          "name": "",
          "type": "bool"
        }
      ],
      "stateMutability": "view",
      "type": "function",
      "constant": true
    },
    {
      "inputs": [
        {
          "internalType": "string",
          "name": "_username",
          "type": "string"
        },
        {
          "internalType": "string",
          "name": "_password",
          "type": "string"
        },
        {
          "internalType": "string",
          "name": "_role",
          "type": "string"
        }
      ],
      "name": "createUser",
      "outputs": [],
      "stateMutability": "nonpayable",
      "type": "function"
    },
    {
      "inputs": [],
      "name": "getAllUsers",
      "outputs": [
        {
          "components": [
            {
              "internalType": "string",
              "name": "username",
              "type": "string"
            },
            {
              "internalType": "string",
              "name": "password",
              "type": "string"
            },
            {
              "internalType": "string",
              "name": "role",
              "type": "string"
            }
          ],
          "internalType": "struct MyContractBlockchain.User[]",
          "name": "",
          "type": "tuple[]"
        }
      ],
      "stateMutability": "view",
      "type": "function",
      "constant": true
    },
    {
      "inputs": [
        {
          "internalType": "string",
          "name": "_username",
          "type": "string"
        },
        {
          "internalType": "string",
          "name": "_password",
          "type": "string"
        }
      ],
      "name": "authenticate",
      "outputs": [
        {
          "internalType": "bool",
          "name": "",
          "type": "bool"
        }
      ],
      "stateMutability": "view",
      "type": "function",
      "constant": true
    },
    {
      "inputs": [
        {
          "internalType": "string",
          "name": "_username",
          "type": "string"
        }
      ],
      "name": "checkUserRole",
      "outputs": [
        {
          "internalType": "string",
          "name": "",
          "type": "string"
        }
      ],
      "stateMutability": "view",
      "type": "function",
      "constant": true
    }
  ],
  "bytecode": "0x60806040523480156200001157600080fd5b5033600260006101000a81548173ffffffffffffffffffffffffffffffffffffffff021916908373ffffffffffffffffffffffffffffffffffffffff1602179055506040518060400160405280600681526020017f546573743030000000000000000000000000000000000000000000000000000081525060039080519060200190620000a0929190620000f5565b506040518060400160405280600681526020017f546573743030000000000000000000000000000000000000000000000000000081525060049080519060200190620000ee929190620000f5565b506200020a565b8280546200010390620001a5565b90600052602060002090601f01602090048101928262000127576000855562000173565b82601f106200014257805160ff191683800117855562000173565b8280016001018555821562000173579182015b828111156200017257825182559160200191906001019062000155565b5b50905062000182919062000186565b5090565b5b80821115620001a157600081600090555060010162000187565b5090565b60006002820490506001821680620001be57607f821691505b60208210811415620001d557620001d4620001db565b5b50919050565b7f4e487b7100000000000000000000000000000000000000000000000000000000600052602260045260246000fd5b61170a806200021a6000396000f3fe608060405234801561001057600080fd5b50600436106100885760003560e01c80637d1571b11161005b5780637d1571b11461013b5780639f4216e81461016b578063e2842d791461019d578063f851a440146101bb57610088565b80633044b1641461008d578063544541b3146100bd57806359ae069b146100ed578063689e1c0314610109575b600080fd5b6100a760048036038101906100a29190610e12565b6101d9565b6040516100b491906112a9565b60405180910390f35b6100d760048036038101906100d29190610e12565b61028b565b6040516100e491906112a9565b60405180910390f35b61010760048036038101906101029190610e7e565b610303565b005b610123600480360381019061011e9190610dd1565b610619565b604051610132939291906112e6565b60405180910390f35b61015560048036038101906101509190610dd1565b6107f1565b60405161016291906112c4565b60405180910390f35b61018560048036038101906101809190610f15565b6108a4565b604051610194939291906112e6565b60405180910390f35b6101a5610a76565b6040516101b29190611287565b60405180910390f35b6101c3610c8b565b6040516101d0919061126c565b60405180910390f35b600060036040516020016101ed919061122b565b60405160208183030381529060405280519060200120836040516020016102149190611214565b6040516020818303038152906040528051906020012014801561028357506004604051602001610244919061122b565b604051602081830303815290604052805190602001208260405160200161026b9190611214565b60405160208183030381529060405280519060200120145b905092915050565b6000808360405161029c9190611214565b90815260200160405180910390206001016040516020016102bd919061122b565b60405160208183030381529060405280519060200120826040516020016102e49190611214565b6040516020818303038152906040528051906020012014905092915050565b600260009054906101000a900473ffffffffffffffffffffffffffffffffffffffff1673ffffffffffffffffffffffffffffffffffffffff163373ffffffffffffffffffffffffffffffffffffffff1614610393576040517f08c379a000000000000000000000000000000000000000000000000000000000815260040161038a90611372565b60405180910390fd5b600080846040516103a49190611214565b908152602001604051809103902060000180546103c0906114f8565b905014610402576040517f08c379a00000000000000000000000000000000000000000000000000000000081526004016103f990611352565b60405180910390fd5b60405160200161041190611242565b60405160208183030381529060405280519060200120816040516020016104389190611214565b6040516020818303038152906040528051906020012014806104a3575060405160200161046490611257565b604051602081830303815290604052805190602001208160405160200161048b9190611214565b60405160208183030381529060405280519060200120145b6104e2576040517f08c379a00000000000000000000000000000000000000000000000000000000081526004016104d990611332565b60405180910390fd5b60405180606001604052808481526020018381526020018281525060008460405161050d9190611214565b90815260200160405180910390206000820151816000019080519060200190610537929190610cb1565b506020820151816001019080519060200190610554929190610cb1565b506040820151816002019080519060200190610571929190610cb1565b509050506001604051806060016040528085815260200184815260200183815250908060018154018082558091505060019003906000526020600020906003020160009091909190915060008201518160000190805190602001906105d7929190610cb1565b5060208201518160010190805190602001906105f4929190610cb1565b506040820151816002019080519060200190610611929190610cb1565b505050505050565b600081805160208101820180518482526020830160208501208183528095505050505050600091509050806000018054610652906114f8565b80601f016020809104026020016040519081016040528092919081815260200182805461067e906114f8565b80156106cb5780601f106106a0576101008083540402835291602001916106cb565b820191906000526020600020905b8154815290600101906020018083116106ae57829003601f168201915b5050505050908060010180546106e0906114f8565b80601f016020809104026020016040519081016040528092919081815260200182805461070c906114f8565b80156107595780601f1061072e57610100808354040283529160200191610759565b820191906000526020600020905b81548152906001019060200180831161073c57829003601f168201915b50505050509080600201805461076e906114f8565b80601f016020809104026020016040519081016040528092919081815260200182805461079a906114f8565b80156107e75780601f106107bc576101008083540402835291602001916107e7565b820191906000526020600020905b8154815290600101906020018083116107ca57829003601f168201915b5050505050905083565b60606000826040516108039190611214565b9081526020016040518091039020600201805461081f906114f8565b80601f016020809104026020016040519081016040528092919081815260200182805461084b906114f8565b80156108985780601f1061086d57610100808354040283529160200191610898565b820191906000526020600020905b81548152906001019060200180831161087b57829003601f168201915b50505050509050919050565b600181815481106108b457600080fd5b90600052602060002090600302016000915090508060000180546108d7906114f8565b80601f0160208091040260200160405190810160405280929190818152602001828054610903906114f8565b80156109505780601f1061092557610100808354040283529160200191610950565b820191906000526020600020905b81548152906001019060200180831161093357829003601f168201915b505050505090806001018054610965906114f8565b80601f0160208091040260200160405190810160405280929190818152602001828054610991906114f8565b80156109de5780601f106109b3576101008083540402835291602001916109de565b820191906000526020600020905b8154815290600101906020018083116109c157829003601f168201915b5050505050908060020180546109f3906114f8565b80601f0160208091040260200160405190810160405280929190818152602001828054610a1f906114f8565b8015610a6c5780601f10610a4157610100808354040283529160200191610a6c565b820191906000526020600020905b815481529060010190602001808311610a4f57829003601f168201915b5050505050905083565b60606001805480602002602001604051908101604052809291908181526020016000905b82821015610c825783829060005260206000209060030201604051806060016040529081600082018054610acd906114f8565b80601f0160208091040260200160405190810160405280929190818152602001828054610af9906114f8565b8015610b465780601f10610b1b57610100808354040283529160200191610b46565b820191906000526020600020905b815481529060010190602001808311610b2957829003601f168201915b50505050508152602001600182018054610b5f906114f8565b80601f0160208091040260200160405190810160405280929190818152602001828054610b8b906114f8565b8015610bd85780601f10610bad57610100808354040283529160200191610bd8565b820191906000526020600020905b815481529060010190602001808311610bbb57829003601f168201915b50505050508152602001600282018054610bf1906114f8565b80601f0160208091040260200160405190810160405280929190818152602001828054610c1d906114f8565b8015610c6a5780601f10610c3f57610100808354040283529160200191610c6a565b820191906000526020600020905b815481529060010190602001808311610c4d57829003601f168201915b50505050508152505081526020019060010190610a9a565b50505050905090565b600260009054906101000a900473ffffffffffffffffffffffffffffffffffffffff1681565b828054610cbd906114f8565b90600052602060002090601f016020900481019282610cdf5760008555610d26565b82601f10610cf857805160ff1916838001178555610d26565b82800160010185558215610d26579182015b82811115610d25578251825591602001919060010190610d0a565b5b509050610d339190610d37565b5090565b5b80821115610d50576000816000905550600101610d38565b5090565b6000610d67610d62846113b7565b611392565b905082815260208101848484011115610d7f57600080fd5b610d8a8482856114b6565b509392505050565b600082601f830112610da357600080fd5b8135610db3848260208601610d54565b91505092915050565b600081359050610dcb816116bd565b92915050565b600060208284031215610de357600080fd5b600082013567ffffffffffffffff811115610dfd57600080fd5b610e0984828501610d92565b91505092915050565b60008060408385031215610e2557600080fd5b600083013567ffffffffffffffff811115610e3f57600080fd5b610e4b85828601610d92565b925050602083013567ffffffffffffffff811115610e6857600080fd5b610e7485828601610d92565b9150509250929050565b600080600060608486031215610e9357600080fd5b600084013567ffffffffffffffff811115610ead57600080fd5b610eb986828701610d92565b935050602084013567ffffffffffffffff811115610ed657600080fd5b610ee286828701610d92565b925050604084013567ffffffffffffffff811115610eff57600080fd5b610f0b86828701610d92565b9150509250925092565b600060208284031215610f2757600080fd5b6000610f3584828501610dbc565b91505092915050565b6000610f4a83836111b6565b905092915050565b610f5b8161146e565b82525050565b6000610f6c8261140d565b610f768185611430565b935083602082028501610f88856113e8565b8060005b85811015610fc45784840389528151610fa58582610f3e565b9450610fb083611423565b925060208a01995050600181019050610f8c565b50829750879550505050505092915050565b610fdf81611480565b82525050565b6000610ff082611418565b610ffa8185611441565b935061100a8185602086016114c5565b611013816115b9565b840191505092915050565b600061102982611418565b6110338185611452565b93506110438185602086016114c5565b61104c816115b9565b840191505092915050565b600061106282611418565b61106c8185611463565b935061107c8185602086016114c5565b80840191505092915050565b60008154611095816114f8565b61109f8186611463565b945060018216600081146110ba57600181146110cb576110fe565b60ff198316865281860193506110fe565b6110d4856113f8565b60005b838110156110f6578154818901526001820191506020810190506110d7565b838801955050505b50505092915050565b6000611114600783611463565b915061111f826115ca565b600782019050919050565b6000611137600c83611452565b9150611142826115f3565b602082019050919050565b600061115a600783611463565b91506111658261161c565b600782019050919050565b600061117d601783611452565b915061118882611645565b602082019050919050565b60006111a0602283611452565b91506111ab8261166e565b604082019050919050565b600060608301600083015184820360008601526111d38282610fe5565b915050602083015184820360208601526111ed8282610fe5565b915050604083015184820360408601526112078282610fe5565b9150508091505092915050565b60006112208284611057565b915081905092915050565b60006112378284611088565b915081905092915050565b600061124d82611107565b9150819050919050565b60006112628261114d565b9150819050919050565b60006020820190506112816000830184610f52565b92915050565b600060208201905081810360008301526112a18184610f61565b905092915050565b60006020820190506112be6000830184610fd6565b92915050565b600060208201905081810360008301526112de818461101e565b905092915050565b60006060820190508181036000830152611300818661101e565b90508181036020830152611314818561101e565b90508181036040830152611328818461101e565b9050949350505050565b6000602082019050818103600083015261134b8161112a565b9050919050565b6000602082019050818103600083015261136b81611170565b9050919050565b6000602082019050818103600083015261138b81611193565b9050919050565b600061139c6113ad565b90506113a8828261152a565b919050565b6000604051905090565b600067ffffffffffffffff8211156113d2576113d161158a565b5b6113db826115b9565b9050602081019050919050565b6000819050602082019050919050565b60008190508160005260206000209050919050565b600081519050919050565b600081519050919050565b6000602082019050919050565b600082825260208201905092915050565b600082825260208201905092915050565b600082825260208201905092915050565b600081905092915050565b60006114798261148c565b9050919050565b60008115159050919050565b600073ffffffffffffffffffffffffffffffffffffffff82169050919050565b6000819050919050565b82818337600083830152505050565b60005b838110156114e35780820151818401526020810190506114c8565b838111156114f2576000848401525b50505050565b6000600282049050600182168061151057607f821691505b602082108114156115245761152361155b565b5b50919050565b611533826115b9565b810181811067ffffffffffffffff821117156115525761155161158a565b5b80604052505050565b7f4e487b7100000000000000000000000000000000000000000000000000000000600052602260045260246000fd5b7f4e487b7100000000000000000000000000000000000000000000000000000000600052604160045260246000fd5b6000601f19601f8301169050919050565b7f73747564656e7400000000000000000000000000000000000000000000000000600082015250565b7f496e76616c696420726f6c650000000000000000000000000000000000000000600082015250565b7f7465616368657200000000000000000000000000000000000000000000000000600082015250565b7f557365726e616d6520616c726561647920657869737473000000000000000000600082015250565b7f4f6e6c792061646d696e2063616e20706572666f726d2074686973206163746960008201527f6f6e000000000000000000000000000000000000000000000000000000000000602082015250565b6116c6816114ac565b81146116d157600080fd5b5056fea26469706673582212202955fe9b12d193cc7577326908b2298ac2f583880aca58cc9d665d7381e816dd64736f6c63430008040033",
  "immutableReferences": {},
  "source": "// SPDX-License-Identifier: MIT\r\npragma solidity ^0.8.4;\r\n\r\ncontract MyContractBlockchain {\r\n    struct User {\r\n        string username;\r\n        string password;\r\n        string role; // \"student\" or \"teacher\"\r\n    }\r\n    \r\n    mapping(string => User) public users;\r\n      User[] public userList; // <--  array \r\n\r\n    address public admin;\r\n    string private adminUsername;\r\n    string private adminPassword;\r\n    \r\n    constructor() {\r\n        admin = msg.sender;\r\n        adminUsername = \"Test00\";\r\n        adminPassword = \"Test00\";\r\n    }\r\n    \r\n    modifier onlyAdmin() {\r\n        require(msg.sender == admin, \"Only admin can perform this action\");\r\n        _;\r\n    }\r\n    \r\n    function authenticateAdmin(string memory _username, string memory _password) public view returns(bool) {\r\n    return keccak256(abi.encodePacked(_username)) == keccak256(abi.encodePacked(adminUsername)) && keccak256(abi.encodePacked(_password)) == keccak256(abi.encodePacked(adminPassword));\r\n}\r\n\r\n    \r\n    function createUser(string memory _username, string memory _password, string memory _role) public onlyAdmin {\r\n        require(bytes(users[_username].username).length == 0, \"Username already exists\");\r\n        require(keccak256(abi.encodePacked(_role)) == keccak256(abi.encodePacked(\"student\")) || keccak256(abi.encodePacked(_role)) == keccak256(abi.encodePacked(\"teacher\")), \"Invalid role\");\r\n        users[_username] = User(_username, _password, _role);\r\n        userList.push(User(_username, _password, _role)); // <--  user  array userList  \r\n    }\r\n  function getAllUsers() public view returns(User[] memory) {\r\n    return userList;\r\n}\r\n\r\n\r\n\r\n\r\n\r\n    function authenticate(string memory _username, string memory _password) public view returns(bool) {\r\n    return keccak256(abi.encodePacked(_password)) == keccak256(abi.encodePacked(users[_username].password));\r\n}\r\n    function checkUserRole(string memory _username) public view returns(string memory) {\r\n    return users[_username].role;\r\n}\r\n\r\n}\r\n\r\n",
  "sourcePath": "C:\\Users\\sirichai\\Desktop\\project\\project\\projecrblockchainApp\\contracts\\MyContract.sol",
  "compiler": {
    "name": "solc",
    "version": "0.8.4+commit.c7e474f2.Emscripten.clang"
  },
  "schemaVersion": "3.4.11",
  "updatedAt": "2023-09-18T14:02:31.877Z",
  "networkType": "ethereum",
  "devdoc": {
    "kind": "dev",
    "methods": {},
    "version": 1
  },
  "userdoc": {
    "kind": "user",
    "methods": {},
    "version": 1
  }
}