{
  "contractName": "MyContractBlockchain",
  "abi": [
    {
      "inputs": [],
      "stateMutability": "nonpayable",
      "type": "constructor"
    },
    {
      "inputs": [],
      "name": "admin",
      "outputs": [
        {
          "internalType": "address",
          "name": "",
          "type": "address"
        }
      ],
      "stateMutability": "view",
      "type": "function",
      "constant": true
    },
    {
      "inputs": [
        {
          "internalType": "string",
          "name": "",
          "type": "string"
        }
      ],
      "name": "users",
      "outputs": [
        {
          "internalType": "string",
          "name": "username",
          "type": "string"
        },
        {
          "internalType": "string",
          "name": "password",
          "type": "string"
        },
        {
          "internalType": "string",
          "name": "role",
          "type": "string"
        }
      ],
      "stateMutability": "view",
      "type": "function",
      "constant": true
    },
    {
      "inputs": [
        {
          "internalType": "string",
          "name": "_username",
          "type": "string"
        },
        {
          "internalType": "string",
          "name": "_password",
          "type": "string"
        }
      ],
      "name": "authenticateAdmin",
      "outputs": [
        {
          "internalType": "bool",
          "name": "",
          "type": "bool"
        }
      ],
      "stateMutability": "view",
      "type": "function",
      "constant": true
    },
    {
      "inputs": [
        {
          "internalType": "string",
          "name": "_username",
          "type": "string"
        },
        {
          "internalType": "string",
          "name": "_password",
          "type": "string"
        },
        {
          "internalType": "string",
          "name": "_role",
          "type": "string"
        }
      ],
      "name": "createUser",
      "outputs": [],
      "stateMutability": "nonpayable",
      "type": "function"
    },
    {
      "inputs": [
        {
          "internalType": "string",
          "name": "_username",
          "type": "string"
        }
      ],
      "name": "getUser",
      "outputs": [
        {
          "components": [
            {
              "internalType": "string",
              "name": "username",
              "type": "string"
            },
            {
              "internalType": "string",
              "name": "password",
              "type": "string"
            },
            {
              "internalType": "string",
              "name": "role",
              "type": "string"
            }
          ],
          "internalType": "struct MyContractBlockchain.User",
          "name": "",
          "type": "tuple"
        }
      ],
      "stateMutability": "view",
      "type": "function",
      "constant": true
    },
    {
      "inputs": [
        {
          "internalType": "string",
          "name": "_username",
          "type": "string"
        },
        {
          "internalType": "string",
          "name": "_password",
          "type": "string"
        }
      ],
      "name": "authenticate",
      "outputs": [
        {
          "internalType": "bool",
          "name": "",
          "type": "bool"
        }
      ],
      "stateMutability": "view",
      "type": "function",
      "constant": true
    },
    {
      "inputs": [
        {
          "internalType": "string",
          "name": "_username",
          "type": "string"
        }
      ],
      "name": "checkUserRole",
      "outputs": [
        {
          "internalType": "string",
          "name": "",
          "type": "string"
        }
      ],
      "stateMutability": "view",
      "type": "function",
      "constant": true
    }
  ],
  "bytecode": "0x60806040523480156200001157600080fd5b5033600160006101000a81548173ffffffffffffffffffffffffffffffffffffffff021916908373ffffffffffffffffffffffffffffffffffffffff1602179055506040518060400160405280600681526020017f546573743030000000000000000000000000000000000000000000000000000081525060029080519060200190620000a0929190620000f5565b506040518060400160405280600681526020017f546573743030000000000000000000000000000000000000000000000000000081525060039080519060200190620000ee929190620000f5565b506200020a565b8280546200010390620001a5565b90600052602060002090601f01602090048101928262000127576000855562000173565b82601f106200014257805160ff191683800117855562000173565b8280016001018555821562000173579182015b828111156200017257825182559160200191906001019062000155565b5b50905062000182919062000186565b5090565b5b80821115620001a157600081600090555060010162000187565b5090565b60006002820490506001821680620001be57607f821691505b60208210811415620001d557620001d4620001db565b5b50919050565b7f4e487b7100000000000000000000000000000000000000000000000000000000600052602260045260246000fd5b611347806200021a6000396000f3fe608060405234801561001057600080fd5b506004361061007d5760003560e01c806359ae069b1161005b57806359ae069b14610112578063689e1c031461012e5780637d1571b114610160578063f851a440146101905761007d565b80633044b1641461008257806331feb671146100b2578063544541b3146100e2575b600080fd5b61009c60048036038101906100979190610b5b565b6101ae565b6040516100a99190610f1e565b60405180910390f35b6100cc60048036038101906100c79190610b1a565b610260565b6040516100d99190611007565b60405180910390f35b6100fc60048036038101906100f79190610b5b565b61044e565b6040516101099190610f1e565b60405180910390f35b61012c60048036038101906101279190610bc7565b6104c6565b005b61014860048036038101906101439190610b1a565b61073d565b60405161015793929190610f5b565b60405180910390f35b61017a60048036038101906101759190610b1a565b610915565b6040516101879190610f39565b60405180910390f35b6101986109c8565b6040516101a59190610f03565b60405180910390f35b600060026040516020016101c29190610ec2565b60405160208183030381529060405280519060200120836040516020016101e99190610eab565b60405160208183030381529060405280519060200120148015610258575060036040516020016102199190610ec2565b60405160208183030381529060405280519060200120826040516020016102409190610eab565b60405160208183030381529060405280519060200120145b905092915050565b6102686109ee565b6000826040516102789190610eab565b90815260200160405180910390206040518060600160405290816000820180546102a19061114c565b80601f01602080910402602001604051908101604052809291908181526020018280546102cd9061114c565b801561031a5780601f106102ef5761010080835404028352916020019161031a565b820191906000526020600020905b8154815290600101906020018083116102fd57829003601f168201915b505050505081526020016001820180546103339061114c565b80601f016020809104026020016040519081016040528092919081815260200182805461035f9061114c565b80156103ac5780601f10610381576101008083540402835291602001916103ac565b820191906000526020600020905b81548152906001019060200180831161038f57829003601f168201915b505050505081526020016002820180546103c59061114c565b80601f01602080910402602001604051908101604052809291908181526020018280546103f19061114c565b801561043e5780601f106104135761010080835404028352916020019161043e565b820191906000526020600020905b81548152906001019060200180831161042157829003601f168201915b5050505050815250509050919050565b6000808360405161045f9190610eab565b90815260200160405180910390206001016040516020016104809190610ec2565b60405160208183030381529060405280519060200120826040516020016104a79190610eab565b6040516020818303038152906040528051906020012014905092915050565b600160009054906101000a900473ffffffffffffffffffffffffffffffffffffffff1673ffffffffffffffffffffffffffffffffffffffff163373ffffffffffffffffffffffffffffffffffffffff1614610556576040517f08c379a000000000000000000000000000000000000000000000000000000000815260040161054d90610fe7565b60405180910390fd5b600080846040516105679190610eab565b908152602001604051809103902060000180546105839061114c565b9050146105c5576040517f08c379a00000000000000000000000000000000000000000000000000000000081526004016105bc90610fc7565b60405180910390fd5b6040516020016105d490610ed9565b60405160208183030381529060405280519060200120816040516020016105fb9190610eab565b604051602081830303815290604052805190602001201480610666575060405160200161062790610eee565b604051602081830303815290604052805190602001208160405160200161064e9190610eab565b60405160208183030381529060405280519060200120145b6106a5576040517f08c379a000000000000000000000000000000000000000000000000000000000815260040161069c90610fa7565b60405180910390fd5b6040518060600160405280848152602001838152602001828152506000846040516106d09190610eab565b908152602001604051809103902060008201518160000190805190602001906106fa929190610a0f565b506020820151816001019080519060200190610717929190610a0f565b506040820151816002019080519060200190610734929190610a0f565b50905050505050565b6000818051602081018201805184825260208301602085012081835280955050505050506000915090508060000180546107769061114c565b80601f01602080910402602001604051908101604052809291908181526020018280546107a29061114c565b80156107ef5780601f106107c4576101008083540402835291602001916107ef565b820191906000526020600020905b8154815290600101906020018083116107d257829003601f168201915b5050505050908060010180546108049061114c565b80601f01602080910402602001604051908101604052809291908181526020018280546108309061114c565b801561087d5780601f106108525761010080835404028352916020019161087d565b820191906000526020600020905b81548152906001019060200180831161086057829003601f168201915b5050505050908060020180546108929061114c565b80601f01602080910402602001604051908101604052809291908181526020018280546108be9061114c565b801561090b5780601f106108e05761010080835404028352916020019161090b565b820191906000526020600020905b8154815290600101906020018083116108ee57829003601f168201915b5050505050905083565b60606000826040516109279190610eab565b908152602001604051809103902060020180546109439061114c565b80601f016020809104026020016040519081016040528092919081815260200182805461096f9061114c565b80156109bc5780601f10610991576101008083540402835291602001916109bc565b820191906000526020600020905b81548152906001019060200180831161099f57829003601f168201915b50505050509050919050565b600160009054906101000a900473ffffffffffffffffffffffffffffffffffffffff1681565b60405180606001604052806060815260200160608152602001606081525090565b828054610a1b9061114c565b90600052602060002090601f016020900481019282610a3d5760008555610a84565b82601f10610a5657805160ff1916838001178555610a84565b82800160010185558215610a84579182015b82811115610a83578251825591602001919060010190610a68565b5b509050610a919190610a95565b5090565b5b80821115610aae576000816000905550600101610a96565b5090565b6000610ac5610ac08461104e565b611029565b905082815260208101848484011115610add57600080fd5b610ae884828561110a565b509392505050565b600082601f830112610b0157600080fd5b8135610b11848260208601610ab2565b91505092915050565b600060208284031215610b2c57600080fd5b600082013567ffffffffffffffff811115610b4657600080fd5b610b5284828501610af0565b91505092915050565b60008060408385031215610b6e57600080fd5b600083013567ffffffffffffffff811115610b8857600080fd5b610b9485828601610af0565b925050602083013567ffffffffffffffff811115610bb157600080fd5b610bbd85828601610af0565b9150509250929050565b600080600060608486031215610bdc57600080fd5b600084013567ffffffffffffffff811115610bf657600080fd5b610c0286828701610af0565b935050602084013567ffffffffffffffff811115610c1f57600080fd5b610c2b86828701610af0565b925050604084013567ffffffffffffffff811115610c4857600080fd5b610c5486828701610af0565b9150509250925092565b610c67816110cc565b82525050565b610c76816110de565b82525050565b6000610c8782611094565b610c91818561109f565b9350610ca1818560208601611119565b610caa8161120d565b840191505092915050565b6000610cc082611094565b610cca81856110b0565b9350610cda818560208601611119565b610ce38161120d565b840191505092915050565b6000610cf982611094565b610d0381856110c1565b9350610d13818560208601611119565b80840191505092915050565b60008154610d2c8161114c565b610d3681866110c1565b94506001821660008114610d515760018114610d6257610d95565b60ff19831686528186019350610d95565b610d6b8561107f565b60005b83811015610d8d57815481890152600182019150602081019050610d6e565b838801955050505b50505092915050565b6000610dab6007836110c1565b9150610db68261121e565b600782019050919050565b6000610dce600c836110b0565b9150610dd982611247565b602082019050919050565b6000610df16007836110c1565b9150610dfc82611270565b600782019050919050565b6000610e146017836110b0565b9150610e1f82611299565b602082019050919050565b6000610e376022836110b0565b9150610e42826112c2565b604082019050919050565b60006060830160008301518482036000860152610e6a8282610c7c565b91505060208301518482036020860152610e848282610c7c565b91505060408301518482036040860152610e9e8282610c7c565b9150508091505092915050565b6000610eb78284610cee565b915081905092915050565b6000610ece8284610d1f565b915081905092915050565b6000610ee482610d9e565b9150819050919050565b6000610ef982610de4565b9150819050919050565b6000602082019050610f186000830184610c5e565b92915050565b6000602082019050610f336000830184610c6d565b92915050565b60006020820190508181036000830152610f538184610cb5565b905092915050565b60006060820190508181036000830152610f758186610cb5565b90508181036020830152610f898185610cb5565b90508181036040830152610f9d8184610cb5565b9050949350505050565b60006020820190508181036000830152610fc081610dc1565b9050919050565b60006020820190508181036000830152610fe081610e07565b9050919050565b6000602082019050818103600083015261100081610e2a565b9050919050565b600060208201905081810360008301526110218184610e4d565b905092915050565b6000611033611044565b905061103f828261117e565b919050565b6000604051905090565b600067ffffffffffffffff821115611069576110686111de565b5b6110728261120d565b9050602081019050919050565b60008190508160005260206000209050919050565b600081519050919050565b600082825260208201905092915050565b600082825260208201905092915050565b600081905092915050565b60006110d7826110ea565b9050919050565b60008115159050919050565b600073ffffffffffffffffffffffffffffffffffffffff82169050919050565b82818337600083830152505050565b60005b8381101561113757808201518184015260208101905061111c565b83811115611146576000848401525b50505050565b6000600282049050600182168061116457607f821691505b60208210811415611178576111776111af565b5b50919050565b6111878261120d565b810181811067ffffffffffffffff821117156111a6576111a56111de565b5b80604052505050565b7f4e487b7100000000000000000000000000000000000000000000000000000000600052602260045260246000fd5b7f4e487b7100000000000000000000000000000000000000000000000000000000600052604160045260246000fd5b6000601f19601f8301169050919050565b7f73747564656e7400000000000000000000000000000000000000000000000000600082015250565b7f496e76616c696420726f6c650000000000000000000000000000000000000000600082015250565b7f7465616368657200000000000000000000000000000000000000000000000000600082015250565b7f557365726e616d6520616c726561647920657869737473000000000000000000600082015250565b7f4f6e6c792061646d696e2063616e20706572666f726d2074686973206163746960008201527f6f6e00000000000000000000000000000000000000000000000000000000000060208201525056fea2646970667358221220301c9ac0d0124cceee98c01d1427fd7a8d6de68cfeb97592621b9704c33ea5da64736f6c63430008040033",
  "immutableReferences": {},
  "source": "// SPDX-License-Identifier: MIT\r\npragma solidity ^0.8.4;\r\n\r\ncontract MyContractBlockchain {\r\n    struct User {\r\n        string username;    // username  \r\n        string password;  // \r\n        string role; // \"student\" or \"teacher\"\r\n    }\r\n    \r\n    mapping(string => User) public users;\r\n    address public admin;\r\n    string private adminUsername;\r\n    string private adminPassword;\r\n    \r\n      constructor() {\r\n        admin = msg.sender;\r\n        adminUsername = \"Test00\";\r\n        adminPassword = \"Test00\";\r\n    }\r\n    \r\n    modifier onlyAdmin() {\r\n     require(msg.sender == admin, \"Only admin can perform this action\");\r\n     _;// This line is important!\r\n\r\n    }\r\n    \r\n   function authenticateAdmin(string memory _username, string memory _password) public view returns(bool) {\r\n        return keccak256(abi.encodePacked(_username)) == keccak256(abi.encodePacked(adminUsername)) && keccak256(abi.encodePacked(_password)) == keccak256(abi.encodePacked(adminPassword));\r\n    }\r\n    function createUser(string memory _username, string memory _password, string memory _role) public onlyAdmin {\r\n    require(bytes(users[_username].username).length == 0, \"Username already exists\");\r\n    require(keccak256(abi.encodePacked(_role)) == keccak256(abi.encodePacked(\"student\")) || keccak256(abi.encodePacked(_role)) == keccak256(abi.encodePacked(\"teacher\")), \"Invalid role\");\r\n    users[_username] = User(_username, _password, _role);\r\n}\r\n\r\n    \r\n    function getUser(string memory _username) public view returns(User memory) {\r\n    return users[_username];\r\n}\r\n\r\n\r\n    function authenticate(string memory _username, string memory _password) public view returns(bool) {\r\n    return keccak256(abi.encodePacked(_password)) == keccak256(abi.encodePacked(users[_username].password));\r\n}\r\n    function checkUserRole(string memory _username) public view returns(string memory) {\r\n    return users[_username].role;\r\n}\r\n\r\n}\r\n\r\n",
  "sourcePath": "C:\\Users\\Duff\\Desktop\\blockchainApp\\projecrblockchainApp\\contracts\\MyContract.sol",
  "compiler": {
    "name": "solc",
    "version": "0.8.4+commit.c7e474f2.Emscripten.clang"
  },
  "schemaVersion": "3.4.16",
  "updatedAt": "2023-09-17T13:07:05.173Z",
  "networkType": "ethereum",
  "devdoc": {
    "kind": "dev",
    "methods": {},
    "version": 1
  },
  "userdoc": {
    "kind": "user",
    "methods": {},
    "version": 1
  }
}